:1000000055C000006FC000006DC000006BC0000054
:1000100069C0000067C0000065C0000063C0000048
:1000200061C000005FC000000C9458085BC0000075
:1000300059C0000057C0000055C0000053C0000068
:1000400051C000004FC000004DC000004BC0000078
:1000500049C0000047C0000045C0000043C0000088
:1000600041C0000040C000003DC000003BC0000097
:1000700039C0000037C0000035C0000033C00000A8
:1000800031C000002FC000002DC000002BC00000B8
:1000900029C0000027C0000025C0000023C00000C8
:1000A00021C000001FC000001DC0000011241FBEA1
:1000B000CFEFDAE0DEBFCDBF11E0A0E0B1E0E0E4D9
:1000C000F5E102C005900D92A234B107D9F727E0FF
:1000D000A2E4B1E001C01D92A032B207E1F7E5D57C
:1000E0000C949E0A8DCF1F920F920FB60F9211247F
:1000F0008F93EF93FF93E091420181E08E0F809305
:1001000042018091CE00F0E0ED5EFD4F8083809152
:10011000C80087FDF0CFFF91EF918F910F900FBE38
:100120000F901F901895CF93DF9390911703292F6D
:100130002F7011F097FD48C0D0E020E030E050E093
:1001400040911803842F8F7041F09078891729F01F
:1001500047FD03C0C42F90E004C0C0E080E090E001
:1001600040E08217930714F4D42FC52F1092480152
:1001700010924701DD2321F08D2F8F708730B0F072
:10018000CC2389F08C2F8F70873068F46C2F661F1A
:100190006627661F606C42E3D0D6882321F0C7FD36
:1001A00017C0C0934701DF91CF9108956D2F661F4F
:1001B0006627661F606C42E3C0D6882309F3D7FD2B
:1001C0000AC0D0934701DCCFD92F30E0592FB8CFE8
:1001D000C0934801E8CFD0934801D2CFFC01809171
:1001E0001B0390911C03009709F47EC020911D030E
:1001F00030911E03E217F30709F477C09C012A5CD3
:100200003F4F8091210390912203009709F46CC025
:10021000A0912303B0912403EA17FB0709F479C0E6
:10022000280F391F8091270390912803009709F424
:100230005BC0A0912903B0912A03EA17FB0709F4D8
:1002400073C0280F391F80912D0390912E030097C2
:1002500009F44AC0A0912F03B0913003EA17FB07BD
:1002600009F46DC0280F391F809133039091340336
:100270000097D1F1A0913503B0913603EA17FB073F
:1002800009F468C0280F391F8091390390913A030F
:10029000009751F1A0913B03B0913C03EA17FB0793
:1002A00009F463C0280F391F80913F0390914003E8
:1002B0000097D1F0A0914103B0914203EA17FB07E8
:1002C00009F45EC0280F391F8091450390914603C1
:1002D000009751F080914703909148038E179F0734
:1002E00009F459C080E090E0089520911F033091F7
:1002F00020036217730709F081CF26E330E0EBE1BA
:10030000F3E02B5E3C4FDA012D933C938081918189
:100310000895A0912503B09126036A177B0709F081
:100320007FCFE1E2F3E0EDCFA0912B03B0912C035E
:100330006A177B0709F085CFE7E2F3E0E2CFA091EF
:100340003103B09132036A177B0709F08BCFEDE2DE
:10035000F3E0D7CFA0913703B09138036A177B073A
:1003600009F090CFE3E3F3E0CCCFA0913D03B0914F
:100370003E036A177B0709F095CFE9E3F3E0C1CFAD
:10038000A0914303B09144036A177B0709F09ACF09
:10039000EFE3F3E0B6CF8091490390914A038617CB
:1003A000970709F09FCFE5E4F3E0ABCF109245014A
:1003B00080911807982F907641F487FD05C08091B1
:1003C00019078B3009F492C00895809112028F5F53
:1003D000809312028093C90188E0E8E1F7E0AAEC7B
:1003E000B1E001900D928A95E1F78091E800877F56
:1003F0008093E8008091180787FD0EC060911E076A
:1004000070911F076134710508F476C08091EB008C
:1004100080628093EB00089538E050EB69E081E062
:10042000809345018091C80085FFFCCF5093CE009A
:100430008FEF852798E027E0880F08F482279A95A8
:10044000D9F7982F6623B1F0E9ECF1E0432F219121
:100450008091C80085FFFCCF2093CE00892F822792
:1004600098E027E0880F08F482279A95D9F7982F0B
:10047000415068F78091C80085FFFCCF9093CE0073
:1004800010928500109284008091C80085FFFCCFF7
:100490005093CE008FEF852798E057E0880F08F43F
:1004A00085279A95D9F7982F6623A9F0E9ECF1E012
:1004B00021918091C80085FFFCCF2093CE00892F29
:1004C000822798E027E0880F08F482279A95D9F7C9
:1004D000982F315068F78091C80085FFFCCF90932A
:1004E000CE00109285001092840008958091E8005B
:1004F000877F8093E80035C582ED91E0DCD48111DF
:1005000085CF30911E0769E0630F50EB530F385FC2
:1005100086CF8F929F92AF92BF92CF92DF92EF924F
:10052000FF920F931F93CF93DF93CDB7DEB7299739
:100530000FB6F894DEBF0FBECDBFD09042018090C1
:100540004301D81809F459C061E1A62E77EFC72EF0
:10055000BB24BA948E01065F1F4FE2E29E2EE82D67
:10056000F0E0ED5EFD4FE08083EFE81609F46AC02D
:1005700080E98E0D803408F058C051E9F52EFE0C4C
:100580008F2D90E00196A9E8B1E02D2D30E0821783
:1005900093070CF032C031E0380D8B2D8E2598E09A
:1005A00027E0880F08F482279A95D9F7632F20E077
:1005B000462F50E04D5E5D4FFA0190819D93892753
:1005C00098E047E0880F08F484279A95D9F72F5FC1
:1005D0006F5F2F1568F3E62FF0E0ED5EFD4F908121
:1005E000891709F476C080910001811188C0832E9B
:1005F00080924301DA94D110B2CF809117078430F2
:1006000009F4E1C029960FB6F894DEBF0FBECDBF46
:10061000DF91CF911F910F91FF90EF90DF90CF90DE
:10062000BF90AF909F908F90089580E58E0D81349C
:1006300080F449E5F42EFE0C8F2D90E00196A9EC94
:10064000B1E0A3CF87E090E0DE01119636E0F32E13
:100650009CCFE1EFEE1609F483C080910001811177
:1006600002C08394C5CFAF82E88689868091C80096
:1006700085FFFCCFC092CE002B2D2C2588E097E083
:10068000220F08F429278A95D9F7FE013796919110
:100690008091C80085FFFCCF9093CE00822F8927E0
:1006A00098E027E0880F08F482279A95D9F7282F39
:1006B000E017F10761F79091C80095FFFCCF809398
:1006C000CE001092850010928400809043018394A4
:1006D0008FCFF3EFEF1609F44DC08FEA8E1508F0B7
:1006E00046C080911707843009F497C082E08F0DCF
:1006F000880E80924301DA94DA94DF187CCF9F82CF
:10070000E88689868091C80085FFFCCFC092CE0024
:100710002B2D2C2588E097E0220F08F429278A95B5
:10072000D9F7FE01379691918091C80085FFFCCFE3
:100730009093CE00822F892798E027E0880F08F455
:1007400082279A95D9F7282FE017F10761F7909142
:10075000C80095FDB4CF9091C80095FFF8CFAFCFFA
:100760008AE090E0DE01119629E0F22E0ECFF092A1
:100770004601BCCF8981823709F06FCF8A818536E7
:1007800009F06BCF8B81873509F067CF8C8181347D
:1007900009F063CF8D81833509F05FCF8E8184347A
:1007A00009F05BCF8091E00081608093E000F894D5
:1007B00098E088E10FB6F894A895809360000FBE8A
:1007C00090936000FFCF80914801882309F41ACFED
:1007D00090914601992309F415CF8F708093E90019
:1007E0008091E80080FF0ECFE9E8F1E00AC0819136
:1007F0008093F100809146018150809346018823C7
:1008000021F08091E80085FDF2CF8091E8008E779D
:100810008093E80010924601F5CE9091C901809135
:100820001202981363CF80914501882309F45ECFAB
:1008300048E050E068E177E08AEC91E072D6892BDD
:1008400009F054CF1092E90010924501E1EFEE1645
:10085000C1F08091180787FD04C083D380904301C5
:1008600045CF67EF6F0D70E080911E0790911F07D5
:100870008617970710F4BC01772782ED91E090D29C
:10088000ECCF8091EB0080628093EB00809043017D
:100890002DCFEF92FF920F931F93CF93DF9314BE50
:1008A0000FB6F894A89580916000886180936000ED
:1008B000109260000FBE90E080E80FB6F89480932D
:1008C0006100909361000FBE8091810085608093EC
:1008D000810083E090E09093CD008093CC0086E08F
:1008E0008093CA0082E08093C80088E18093C900A9
:1008F000539A5A9A8091C80085FFFCCF83EF80936A
:10090000CE004FEF482788E097E0440F08F44927CE
:100910008A95D9F721E431E0E1E0F1E0919180910D
:10092000C80085FFFCCF9093CE00842F892798E0E4
:1009300047E0880F08F484279A95D9F7482F91E06B
:10094000E134F90759F79091C80095FFFCCF8093E7
:10095000CE0010928500109284009AE002C080912F
:10096000CE008091C80087FDFACFEFE9FFE0319714
:10097000F1F700C000009150A1F788E98093C90009
:10098000789480914401409143011FEFC2EF01E050
:10099000D3EF811111C080914201841BE1F3E42F58
:1009A000F0E0ED5EFD4F9081933F91F0923F01F1B9
:1009B0004F5F40934301EFCF5ED3109285001092BA
:1009C0008400DF91CF911F910F91FF90EF900895D8
:1009D000883008F351E0540FE52FF0E0ED5EFD4F55
:1009E000F081F23709F45BC050934301452FD3CF18
:1009F00060911303709114036115710509F03AC0F9
:100A0000E7E3F0E056E3F52E90E0E817F9071CF66F
:100A1000EE24E394E40E812F8C2798E047E0880FC2
:100A200008F484279A95D9F7FF2009F43CC1DB012B
:100A3000AB5EBC4F5F2D5E0D4E2DE42FF0E0ED5E02
:100A4000FD4F90819D93892798E0E7E0880F08F497
:100A50008E279A95D9F74F5F4513EFCFE52FF0E03A
:100A6000ED5EFD4F9081981709F4C2C0E0924301FA
:100A70004E2D91CFE0911503F0911603DF01A61BD7
:100A8000B70BAD3FB10530F4FE2EF61AEF2DF0E0B6
:100A90003196BACFEEEFF0E09DEFF92EB5CFA2E0A0
:100AA000A40FB0E0AD5EBD4FEC91E53609F09CCFF0
:100AB000A3E0A40FB0E0AD5EBD4F7C91773509F0A7
:100AC00093CFA4E0A40FB0E0AD5EBD4FEC9081E405
:100AD000E8128ACFA5E0A40FB0E0AD5EBD4FFC9058
:100AE00083E5F81281CFA6E0A40FB0E0AD5EBD4F64
:100AF0006C91643409F078CF812F892798E0A7E0C2
:100B0000880F08F48A279A95D9F78F2798E0F7E09D
:100B1000880F08F48F279A95D9F78E2798E0E7E099
:100B2000880F08F48E279A95D9F7872798E077E001
:100B3000880F08F487279A95D9F78E2598E077E0F3
:100B4000880F08F487279A95D9F78F2598E077E0E2
:100B5000880F08F487279A95D9F7862798E067E0E9
:100B6000880F08F486279A95D9F7E7E0E40FF0E0BC
:100B7000ED5EFD4F9081981337CF8091C80085FFBF
:100B8000FCCFD093CE00812F8D2798E047E0880FCF
:100B900008F484279A95D9F7E1E0F1E0419190912A
:100BA000C80095FFFCCF4093CE00982F942788E093
:100BB00047E0990F08F494278A95D9F7892F2E17C3
:100BC0003F0761F78091C80085FFFCCF9093CE006E
:100BD0001092850010928400109214031092130357
:100BE00040914301485F4093430180914401D1CE3D
:100BF0006F0D711D7093140360931303809119039B
:100C000080FD009300018091150390911603AC01C3
:100C1000465351094B3C534008F43EC01092140314
:100C2000109213038091C80085FFFCCFC093CE00C3
:100C3000812F8C2798E047E0880F08F484279A9545
:100C4000D9F7482FE3E1F3E091918091C80085FF47
:100C5000FCCF9093CE00842F892798E047E0880F3F
:100C600008F484279A95D9F7482F93E0E531F907DE
:100C700059F79091C80095FFFCCF8093CE00109259
:100C8000850010928400409143014E5F4F0D4093C8
:100C90004301809144017DCE6817790709F0C2CFE6
:100CA00000934401BFCF5E2DD9CEF3DDDFEFCDEF52
:100CB00030DC809117078430B9F0809184009091E6
:100CC00085008C349C4450F08091C80085FFFCCF97
:100CD000C093CE001092850010928400FFD319DCDF
:100CE00080911707843049F780914701882329F3C1
:100CF0008F708093E9008091E80082FFDECFA9E445
:100D0000B1E0FD0180E090E008C02091F100219366
:100D100001968034910509F43BC02091E80025FD3F
:100D2000F4CF2091E8002B772093E800009729F278
:100D3000282F81599091C80095FFFCCF8093CE0059
:100D40003D2F382788E097E0330F08F439278A953C
:100D5000D9F721509D918091C80085FFFCCF9093D9
:100D6000CE00832F892798E037E0880F08F4832787
:100D70009A95D9F7382F215068F79091C80095FFC0
:100D8000FCCF8093CE00109285001092840095CF06
:100D90008091E8008B778093E8008FEA20E4CACF47
:100DA00020911E0730911F072617370758F061154D
:100DB000710509F046C02091E8002E772093E800E5
:100DC00020E030E0FC0160E02115310529F56111DA
:100DD0000FC031C08530B9F18091E80083FD35C086
:100DE0008091E80082FD27C08091E80080FD51C01D
:100DF000809117078111EECF82E00895853019F1B7
:100E00008091E80083FD21C08091E80082FD13C03D
:100E10008091E80080FD1BC0809117078111EECF03
:100E2000EBCF80911707882339F3853061F08091EB
:100E3000E80083FD0AC08091E80082FFF2CF80E0E5
:100E400008959B01BFCF83E0089581E008958091CC
:100E5000F3004091F20050E0582B0AC0819180933A
:100E6000F100215031094F5F5F4F21153105F9F035
:100E70008091410190E04817590780F361E08417A1
:100E8000950709F060E08091E8008E778093E80094
:100E90009BCF8091F3004091F20050E0582B80915D
:100EA000410190E061E08417950761F7ECCF8091F4
:100EB000410190E0E3CF6115710591F48091E80064
:100EC0008B778093E80006C0809117078823C1F0D4
:100ED000853079F18091E80080FFF6CF80E00895B9
:100EE000FC010AC0853029F18091E80083FD23C010
:100EF0008091E80082FD06C0809117078111F2CF32
:100F000082E008952091F3008091F20090E0922B0E
:100F1000892B31F08091F10081936150710991F733
:100F20008091E8008B778093E8006115710521F7C7
:100F3000D1CF83E0089581E008958F708093E90018
:100F4000EBEEF0E0808181608083EDEEF0E01082D6
:100F50006093EC0040838091EE00881F8827881FF3
:100F600008958091180787FF05C012C08091170768
:100F7000882349F08091E80080FFF8CF8091E80055
:100F80008E778093E8000895809117078823D9F31E
:100F90008091E80082FFF8CF8091E8008B77809302
:100FA000E8000895CF93DF9300D0CDB7DEB773D0BC
:100FB0007AD08091D8008F778093D8008091D80024
:100FC00080688093D8008091D8008F7D8093D8006E
:100FD00019BC1092170710921507AE014F5F5F4FB3
:100FE00060E070E080E091E0F9D8892B29F0E98198
:100FF000FA818781809341018091E0008B7F80930B
:10100000E0008091D80081608093D8002091410158
:1010100030E02930310568F188E090E040E04F5F32
:10102000880F991F82179307D0F34295407F426043
:1010300060E080E082DF8091E1008E7F8093E100BC
:101040008091E20081608093E2008091E2008860FC
:101050008093E2008091E0008E7F8093E000809199
:10106000D80080618093D8000F900F90DF91CF91CE
:10107000089542E0DDCFE8EDF0E080818F7E80834F
:10108000E7EDF0E080818160808384E082BF81E0D1
:101090008093160787CFE8EDF0E080818E7F808314
:1010A0001092E20008951092DA001092E100089583
:1010B0001F920F920FB60F9211242F933F934F93CD
:1010C0005F936F937F938F939F93AF93BF93EF93B0
:1010D000FF938091DA0080FF04C08091D80080FDEA
:1010E00080C08091E10080FF04C08091E20080FD1B
:1010F0008DC08091E10084FF2BC08091E20084FFCD
:1011000027C080E189BD82E189BD09B400FEFDCF21
:101110008091D8008F7D8093D8008091E1008F7EF0
:101120008093E1008091E2008F7E8093E2008091C5
:10113000E20081608093E2008091150781117BC0FD
:101140008091E30087FF80C083E080931707C5D1BB
:101150008091E10083FF34C08091E20083FF30C0C2
:101160008091E100877F8093E10082E08093170700
:10117000109215078091E1008E7F8093E1008091AD
:10118000E2008E7F8093E2008091E2008061809394
:10119000E2002091410130E02930310508F456C0C9
:1011A00088E090E040E04F5F880F991F8217930717
:1011B000D0F34295407F426060E080E0BEDE8DD19A
:1011C000FF91EF91BF91AF919F918F917F916F911F
:1011D0005F914F913F912F910F900FBE0F901F90F5
:1011E00018958091DA008E7F8093DA008091D90083
:1011F00080FF25C080E189BD82E189BD09B400FE80
:10120000FDCF81E08093170768D16BCF8091E2001A
:101210008E7F8093E2008091E20080618093E20003
:101220008091D80080628093D80019BC85E08093BB
:10123000170753D15ECF84E08093170788CF19BC7E
:10124000109217074AD14DCF81E07FCF42E0B4CF53
:101250001F93CF93DF9300D0CDB7DEB78091F1001D
:10126000809318078091F100809319078091F10015
:1012700080931A078091F10080931B078091F10001
:1012800080931C078091F10080931D078091F100ED
:1012900080931E078091F10080931F0787D880916B
:1012A000E80083FF10C090911807809119078530DE
:1012B00081F108F471C08830D1F0893009F4AAC0F6
:1012C000863009F446C08091E80083FF0AC080910F
:1012D000E800877F8093E8008091EB008062809334
:1012E000EB000F900F90DF91CF911F9108959038F0
:1012F00051F78091E800877F8093E800809115077F
:101300008093F1008091E8008E778093E80029DED9
:10131000DACF9111D8CF10911A071F778091E3008F
:101320008078812B8093E3008091E800877F809311
:10133000E80017DE8091E80080FFFCCF8091E30099
:1013400080688093E3001111BEC082E0809317078C
:10135000BACF9058923008F0B6CF60911C077091C8
:101360001D07AE014F5F5F4F80911A0790911B07D9
:101370000E94EE00BC01892B09F4A5CF9091E800F2
:10138000977F9093E80089819A810ADD8091E80037
:101390008B778093E80097CF813029F008F46DC0F7
:1013A000833009F090CF923009F08DCF90911A07D9
:1013B000911127C090911C079F702FEF290F2630A5
:1013C00008F081CF9093E9002091EB0020FF19C035
:1013D000833009F47CC08091EB0080618093EB0046
:1013E00021E030E0A90102C0440F551F9A95E2F7B1
:1013F0004093EA001092EA008091EB0088608093AD
:10140000EB001092E9008091E800877F8093E8006C
:10141000A8DD59CF911157CFAE014F5F5F4F60E00C
:1014200070E080E091E00E94EE00892B09F44BCF40
:1014300020911A0730911B073327E981FA818189AE
:1014400090E0821793070CF43ECF8091E800877FED
:101450008093E80080911A078093150782DD8091C0
:101460001507811132C08091E30087FD2EC081E015
:10147000809317070E94930026CF903811F192387D
:1014800009F021CF80911C078F70873008F01BCFA7
:101490008093E9008091EB0085FB882780F910920A
:1014A000E9009091E800977F9093E8008093F10025
:1014B0001092F1008091E8008E778093E80051DD72
:1014C00002CF80E0EECF83E041CF84E0D1CF8091A6
:1014D000EB0080628093EB0094CF0895CF938091CE
:1014E0001707882391F0C091E900CF708091EC003C
:1014F00080FD0DC080E0C82B1092E9008091E800CB
:1015000083FD0DC0CF70C093E900CF91089580E8AE
:10151000C82B1092E9008091E80083FFF3CF98DE9A
:10152000F1CFFB01DC0104C08D910190801921F401
:1015300041505040C8F7881B990B0895F894FFCF8D
:1015400001726557415344C10101000000000000D1
:10155000000000000000000000000000000000008B
:10156000000000000000000000000000000000007B
:10157000000000000000000000000000000000006B
:02158000000861
:00000001FF
