:1000000055C000006FC000006DC000006BC0000054
:1000100069C0000067C0000065C0000063C0000048
:1000200061C000005FC000000C94B5085BC0000018
:1000300059C0000057C0000055C0000053C0000068
:1000400051C000004FC000004DC000004BC0000078
:1000500049C0000047C0000045C0000043C0000088
:1000600041C0000040C000003DC000003BC0000097
:1000700039C0000037C0000035C0000033C00000A8
:1000800031C000002FC000002DC000002BC00000B8
:1000900029C0000027C0000025C0000023C00000C8
:1000A00021C000001FC000001DC0000011241FBEA1
:1000B000CFEFDAE0DEBFCDBF11E0A0E0B1E0ECE0D1
:1000C000F6E102C005900D92A234B107D9F727E0FE
:1000D000A2E4B1E001C01D92A136B207E1F742D619
:1000E0000C94040B8DCF1F920F920FB60F92112418
:1000F0008F93EF93FF93E091420181E08E0F809305
:1001000042018091CE00F0E0EC5AFD4F8083809157
:10011000C80087FDF0CFFF91EF918F910F900FBE38
:100120000F901F901895CF93DF9390915803292F2C
:100130002F7011F097FD48C0D0E020E030E050E093
:1001400040915903842F8F7041F09078891729F0DE
:1001500047FD03C0C42F90E004C0C0E080E090E001
:1001600040E08217930714F4D42FC52F1092470153
:1001700010924601DD2321F08D2F8F708730B0F073
:10018000CC2389F08C2F8F70873068F46C2F661F1A
:100190006627661F606C42E32DD7882321F0C7FDD8
:1001A00017C0C0934601DF91CF9108956D2F661F50
:1001B0006627661F606C42E31DD7882309F3D7FDCD
:1001C0000AC0D0934601DCCFD92F30E0592FB8CFE9
:1001D000C0934701E8CFD0934701D2CFFC01809173
:1001E0005C0390915D03009709F47EC020915E034B
:1001F00030915F03E217F30709F477C09C012A5C92
:100200003F4F8091620390916303009709F46CC0A3
:10021000A0916403B0916503EA17FB0709F479C064
:10022000280F391F8091680390916903009709F4A2
:100230005BC0A0916A03B0916B03EA17FB0709F456
:1002400073C0280F391F80916E0390916F03009740
:1002500009F44AC0A0917003B0917103EA17FB073B
:1002600009F46DC0280F391F8091740390917503B4
:100270000097D1F1A0917603B0917703EA17FB07BD
:1002800009F468C0280F391F80917A0390917B038D
:10029000009751F1A0917C03B0917D03EA17FB0711
:1002A00009F463C0280F391F809180039091810366
:1002B0000097D1F0A0918203B0918303EA17FB0766
:1002C00009F45EC0280F391F80918603909187033F
:1002D000009751F080918803909189038E179F07B2
:1002E00009F459C080E090E00895209160033091B6
:1002F00061036217730709F081CF26E330E0ECE574
:10030000F3E02A5A3C4FDA012D933C93808191818E
:100310000895A0916603B09167036A177B0709F0FF
:100320007FCFE2E6F3E0EDCFA0916C03B0916D03D7
:100330006A177B0709F085CFE8E6F3E0E2CFA091EA
:100340007203B09173036A177B0709F08BCFEEE657
:10035000F3E0D7CFA0917803B09179036A177B07B8
:1003600009F090CFE4E7F3E0CCCFA0917E03B09109
:100370007F036A177B0709F095CFEAE7F3E0C1CF67
:10038000A0918403B09185036A177B0709F09ACF87
:10039000E0E8F3E0B6CF80918A0390918B03861753
:1003A000970709F09FCFE6E8F3E0ABCF1092450145
:1003B00080915907982F907641F487FD05C0809170
:1003C0005A078B3009F492C00895809153028F5FD1
:1003D0008093530280930A0288E0E9E5F7E0ABE0FE
:1003E000B2E001900D928A95E1F78091E800877F55
:1003F0008093E8008091590787FD0EC060915F07E8
:10040000709160076134710508F476C08091EB004B
:1004100080628093EB00089538E050EB69E081E062
:10042000809345018091C80085FFFCCF5093CE009A
:100430008FEF852798E027E0880F08F482279A95A8
:10044000D9F7982F6623B1F0EAE0F2E0432F21912B
:100450008091C80085FFFCCF2093CE00892F822792
:1004600098E027E0880F08F482279A95D9F7982F0B
:10047000415068F78091C80085FFFCCF9093CE0073
:1004800010928500109284008091C80085FFFCCFF7
:100490005093CE008FEF852798E057E0880F08F43F
:1004A00085279A95D9F7982F6623A9F0EAE0F2E01C
:1004B00021918091C80085FFFCCF2093CE00892F29
:1004C000822798E027E0880F08F482279A95D9F7C9
:1004D000982F315068F78091C80085FFFCCF90932A
:1004E000CE00109285001092840008958091E8005B
:1004F000877F8093E80092C583E192E039D581112E
:1005000085CF30915F0769E0630F50EB530F385F81
:1005100086CF7F928F929F92AF92BF92CF92DF92BF
:10052000EF92FF920F931F93CF93DF93CDB7DEB778
:1005300029970FB6F894DEBF0FBECDBFD090420111
:1005400070904301D71809F465C085EF982EBB243D
:10055000BA9493E3A92E21E1822E37EFC32E7E01B8
:100560008AE0E80EF11CE72DF0E0EC5AFD4F008127
:10057000033F09F475C080E9800F803408F063C040
:1005800011E9100F70908801711073C0709089018B
:10059000812F90E00196772009F468C0AAE8B1E0C5
:1005A0002D2D30E0821793070CF034C0709043017A
:1005B00031E0370D8B2D802798E027E0880F08F475
:1005C00082279A95D9F7632F20E0462F50E04C5AA6
:1005D0005D4FFA0190819D93892798E047E0880F4D
:1005E00008F484279A95D9F72F5F6F5F211768F376
:1005F000E62FF0E0EC5AFD4F9081891709F4B2C064
:10060000809100018111C2C0732E70924301DA946F
:10061000D110A9CF80915807843009F422C12996BE
:100620000FB6F894DEBF0FBECDBFDF91CF911F9103
:100630000F91FF90EF90DF90CF90BF90AF909F9081
:100640008F907F90089580E5800F813408F04BC033
:1006500019E5100F812F90E00196AAE0B2E0A0CF3B
:1006600087E090E0DE01119616E09ACFAAECB1E0A7
:1006700097CF8091000181110CC0472D50E06AE8AE
:1006800071E08AEC91E0B7D77092890110928801ED
:100690007FCF8091C80085FFFCCF9092CE009B2D2C
:1006A000992588E027E0990F08F492278A95D9F7D1
:1006B0008091C80085FFFCCFA092CE009A2588E0EB
:1006C00027E0990F08F492278A95D9F78091C800FE
:1006D00085FFFCCF9093CE0010928500109284008D
:1006E00070908801CACF013F09F482C08091000157
:1006F000811102C0739489CF8F8208877986809197
:10070000C80085FFFCCFC092CE002B2D2C2588E0A1
:1007100097E0220F08F429278A95D9F7FE0137962A
:1007200091918091C80085FFFCCF9093CE00822FDD
:10073000892798E027E0880F08F482279A95D9F74F
:10074000282FEE15FF0561F79091C80095FFFCCFAB
:100750008093CE0010928500109284007090430127
:10076000739453CF033F09F450C0003B08F446C0D4
:1007700080915807843009F4A2C082E0810F780E7E
:1007800070924301DA94DA94D11A42CF82E28F83D5
:10079000088779868091C80085FFFCCFC092CE0083
:1007A0002B2D2C2588E097E0220F08F429278A9525
:1007B000D9F7FE01379691918091C80085FFFCCF53
:1007C0009093CE00822F892798E027E0880F08F4C5
:1007D00082279A95D9F7282FEE15FF0561F790919A
:1007E000C80095FDB5CF9091C80095FFF8CFB0CF68
:1007F0008AE090E0DE01119619E0D2CE8091890165
:10080000882361F110938801B8CF8981823709F07C
:100810006DCF8A81853609F069CF8B81873509F0E4
:1008200065CF8C81813409F061CF8D81833509F0EA
:100830005DCF8E81843409F059CF8091E0008160D2
:100840008093E000F89498E088E10FB6F894A895BA
:10085000809360000FBE90936000FFCF10938901DA
:100860008CCF80914701882309F4D9CE90918901DA
:10087000992309F4D4CE8F708093E9008091E80029
:1008800080FFCDCEEAECF1E00AC081918093F100C7
:1008900080918901815080938901882321F0809182
:1008A000E80085FDF2CF8091E8008E778093E80024
:1008B00010918801111126C010928901B0CE90913B
:1008C0000A0280915302981358CF809145018823E2
:1008D00009F453CF48E050E069E577E08BE092E01F
:1008E0007DD6892B09F049CF1092E900109245017D
:1008F000013F21F18091590787FD10C08FD370907F
:1009000043013BCF412F50E06AE871E08AEC91E06F
:1009100072D6109389011092880181CE67EF610F22
:1009200070E080915F07909160078617970710F439
:10093000BC01772783E192E090D2E0CF8091EB0079
:1009400080628093EB007090430117CFEF92FF928B
:100950000F931F93CF93DF9314BE0FB6F894A8950F
:1009600080916000886180936000109260000FBEEB
:1009700090E080E80FB6F894809361009093610056
:100980000FBE8091810085608093810083E090E0BC
:100990009093CD008093CC0086E08093CA0082E0E3
:1009A0008093C80088E18093C900539A5A9A809135
:1009B000C80085FFFCCF83EF8093CE004FEF482720
:1009C00088E097E0440F08F449278A95D9F721E495
:1009D00031E0E1E0F1E091918091C80085FFFCCF2A
:1009E0009093CE00842F892798E047E0880F08F481
:1009F00084279A95D9F7482F91E0E134F90759F700
:100A00009091C80095FFFCCF8093CE001092850096
:100A1000109284009AE002C08091CE008091C800BC
:100A200087FDFACFEFE9FFE03197F1F700C0000052
:100A30009150A1F788E98093C9007894809144018E
:100A4000409143011FEFC2EF01E0D3EF811111C0CC
:100A500080914201841BE1F3E42FF0E0EC5AFD4F5A
:100A60009081933F91F0923F01F14F5F409343019A
:100A7000EFCF5ED31092850010928400DF91CF916A
:100A80001F910F91FF90EF900895883008F351E087
:100A9000540FE52FF0E0EC5AFD4FF081F23709F4E6
:100AA0005BC050934301452FD3CF609154037091A5
:100AB00055036115710509F03AC0E7E3F0E056E32C
:100AC000F52E90E0E817F9071CF6EE24E394E40E07
:100AD000812F8C2798E047E0880F08F484279A95A7
:100AE000D9F7FF2009F43CC1DB01AA5ABC4F5F2DA6
:100AF0005E0D4E2DE42FF0E0EC5AFD4F90819D935A
:100B0000892798E0E7E0880F08F48E279A95D9F7AF
:100B10004F5F4513EFCFE52FF0E0EC5AFD4F90818A
:100B2000981709F4C2C0E09243014E2D91CFE09195
:100B30005603F0915703DF01A61BB70BAD3FB1057C
:100B400030F4FE2EF61AEF2DF0E03196BACFEEEF2C
:100B5000F0E09DEFF92EB5CFA2E0A40FB0E0AC5AC3
:100B6000BD4FEC91E53609F09CCFA3E0A40FB0E0B7
:100B7000AC5ABD4F7C91773509F093CFA4E0A40F18
:100B8000B0E0AC5ABD4FEC9081E4E8128ACFA5E00A
:100B9000A40FB0E0AC5ABD4FFC9083E5F81281CFB2
:100BA000A6E0A40FB0E0AC5ABD4F6C91643409F0DC
:100BB00078CF812F892798E0A7E0880F08F48A274B
:100BC0009A95D9F78F2798E0F7E0880F08F48F27D8
:100BD0009A95D9F78E2798E0E7E0880F08F48E27DA
:100BE0009A95D9F7872798E077E0880F08F4872748
:100BF0009A95D9F78E2598E077E0880F08F4872733
:100C00009A95D9F78F2598E077E0880F08F4872721
:100C10009A95D9F7862798E067E0880F08F4862729
:100C20009A95D9F7E7E0E40FF0E0EC5AFD4F908198
:100C3000981337CF8091C80085FFFCCFD093CE00AA
:100C4000812F8D2798E047E0880F08F484279A9534
:100C5000D9F7E1E0F1E041919091C80095FFFCCF18
:100C60004093CE00982F942788E047E0990F08F42E
:100C700094278A95D9F7892F2E173F0761F780911E
:100C8000C80085FFFCCF9093CE0010928500109293
:100C90008400109255031092540340914301485F21
:100CA0004093430180914401D1CE6F0D711D70932B
:100CB00055036093540380915A0380FD0093000113
:100CC0008091560390915703AC01465351094B3C18
:100CD000534008F43EC01092550310925403809183
:100CE000C80085FFFCCFC093CE00812F8C2798E0F1
:100CF00047E0880F08F484279A95D9F7482FE4E550
:100D0000F3E091918091C80085FFFCCF9093CE00D5
:100D1000842F892798E047E0880F08F484279A9564
:100D2000D9F7482F93E0E635F90759F79091C800B5
:100D300095FFFCCF8093CE00109285001092840026
:100D4000409143014E5F4F0D409343018091440118
:100D50007DCE6817790709F0C2CF00934401BFCF59
:100D60005E2DD9CEF3DDDFEFCDEFD3DB80915807D9
:100D70008430B9F080918400909185008C349C443B
:100D800050F08091C80085FFFCCFC093CE00109238
:100D9000850010928400FFD3BCDB8091580784301B
:100DA00049F780914601882329F38F708093E900E9
:100DB0008091E80082FFDECFA8E4B1E0FD0180E091
:100DC00090E008C02091F1002193019680349105B4
:100DD00009F43BC02091E80025FDF4CF2091E80004
:100DE0002B772093E800009729F2282F81599091C2
:100DF000C80095FFFCCF8093CE003D2F382788E0B8
:100E000097E0330F08F439278A95D9F721509D913F
:100E10008091C80085FFFCCF9093CE00832F892757
:100E200098E037E0880F08F483279A95D9F7382F90
:100E3000215068F79091C80095FFFCCF8093CE00B9
:100E4000109285001092840095CF8091E8008B77F6
:100E50008093E8008FEA20E4CACF20915F073091A9
:100E600060072617370758F06115710509F046C06D
:100E70002091E8002E772093E80020E030E0FC018C
:100E800060E02115310529F561110FC031C08530B1
:100E9000B9F18091E80083FD35C08091E80082FDC2
:100EA00027C08091E80080FD51C0809158078111D2
:100EB000EECF82E00895853019F18091E80083FD3E
:100EC00021C08091E80082FD13C08091E80080FD80
:100ED0001BC0809158078111EECFEBCF809158074E
:100EE000882339F3853061F08091E80083FD0AC0E2
:100EF0008091E80082FFF2CF80E008959B01BFCF90
:100F000083E0089581E008958091F3004091F2001C
:100F100050E0582B0AC081918093F1002150310993
:100F20004F5F5F4F21153105F9F08091410190E04D
:100F30004817590780F361E08417950709F060E0CE
:100F40008091E8008E778093E8009BCF8091F3003A
:100F50004091F20050E0582B8091410190E061E017
:100F60008417950761F7ECCF8091410190E0E3CFC2
:100F70006115710591F48091E8008B778093E8000A
:100F800006C0809158078823C1F0853079F180919F
:100F9000E80080FFF6CF80E00895FC010AC08530AC
:100FA00029F18091E80083FD23C08091E80082FD53
:100FB00006C0809158078111F2CF82E008952091F8
:100FC000F3008091F20090E0922B892B31F0809118
:100FD000F10081936150710991F78091E8008B775E
:100FE0008093E8006115710521F7D1CF83E0089562
:100FF00081E008958F708093E900EBEEF0E080814E
:1010000081608083EDEEF0E010826093EC0040831D
:101010008091EE00881F8827881F089580915907C6
:1010200087FF05C012C080915807882349F080913E
:10103000E80080FFF8CF8091E8008E778093E80089
:101040000895809158078823D9F38091E80082FFA2
:10105000F8CF8091E8008B778093E8000895CF93D4
:10106000DF9300D0CDB7DEB773D07AD08091D800AF
:101070008F778093D8008091D80080688093D800C3
:101080008091D8008F7D8093D80019BC10925807AA
:1010900010925607AE014F5F5F4F60E070E080E056
:1010A00091E09CD8892B29F0E981FA81878180938E
:1010B00041018091E0008B7F8093E0008091D80017
:1010C00081608093D8002091410130E029303105C2
:1010D00068F188E090E040E04F5F880F991F821729
:1010E0009307D0F34295407F426060E080E082DF6A
:1010F0008091E1008E7F8093E1008091E200816029
:101100008093E2008091E20088608093E200809109
:10111000E0008E7F8093E0008091D8008061809312
:10112000D8000F900F90DF91CF91089542E0DDCF6E
:10113000E8EDF0E080818F7E8083E7EDF0E0808154
:101140008160808384E082BF81E08093570787CFEE
:10115000E8EDF0E080818E7F80831092E2000895B8
:101160001092DA001092E10008951F920F920FB6CC
:101170000F9211242F933F934F935F936F937F931D
:101180008F939F93AF93BF93EF93FF938091DA0078
:1011900080FF04C08091D80080FD80C08091E10074
:1011A00080FF04C08091E20080FD8DC08091E1004D
:1011B00084FF2BC08091E20084FF27C080E189BDBD
:1011C00082E189BD09B400FEFDCF8091D8008F7DFA
:1011D0008093D8008091E1008F7E8093E100809120
:1011E000E2008F7E8093E2008091E2008160809334
:1011F000E2008091560781117BC08091E30087FF58
:1012000080C083E080935807C5D18091E10083FFBF
:1012100034C08091E20083FF30C08091E100877F7D
:101220008093E10082E080935807109256078091E6
:10123000E1008E7F8093E1008091E2008E7F8093B9
:10124000E2008091E20080618093E2002091410100
:1012500030E02930310508F456C088E090E040E0E5
:101260004F5F880F991F82179307D0F34295407FF5
:10127000426060E080E0BEDE8DD1FF91EF91BF91D2
:10128000AF919F918F917F916F915F914F913F911E
:101290002F910F900FBE0F901F9018958091DA003C
:1012A0008E7F8093DA008091D90080FF25C080E195
:1012B00089BD82E189BD09B400FEFDCF81E0809344
:1012C000580768D16BCF8091E2008E7F8093E20057
:1012D0008091E20080618093E2008091D80080627A
:1012E0008093D80019BC85E08093580753D15ECF16
:1012F00084E08093580788CF19BC109258074AD1D0
:101300004DCF81E07FCF42E0B4CF1F93CF93DF93E7
:1013100000D0CDB7DEB78091F1008093590780915E
:10132000F10080935A078091F10080935B078091D0
:10133000F10080935C078091F10080935D078091BC
:10134000F10080935E078091F10080935F078091A8
:10135000F100809360072AD88091E80083FF10C0D5
:101360009091590780915A07853081F108F471C036
:101370008830D1F0893009F4AAC0863009F446C01B
:101380008091E80083FF0AC08091E800877F809306
:10139000E8008091EB0080628093EB000F900F904B
:1013A000DF91CF911F910895903851F78091E80017
:1013B000877F8093E800809156078093F1008091A9
:1013C000E8008E778093E80029DEDACF9111D8CF3C
:1013D00010915B071F778091E3008078812B8093C9
:1013E000E3008091E800877F8093E80017DE80911A
:1013F000E80080FFFCCF8091E30080688093E300E9
:101400001111BEC082E080935807BACF9058923035
:1014100008F0B6CF60915D0770915E07AE014F5F37
:101420005F4F80915B0790915C070E94EE00BC01CA
:10143000892B09F4A5CF9091E800977F9093E8005D
:1014400089819A810ADD8091E8008B778093E8009A
:1014500097CF813029F008F46DC0833009F090CF28
:10146000923009F08DCF90915B07911127C0909138
:101470005D079F702FEF290F263008F081CF9093E2
:10148000E9002091EB0020FF19C0833009F47CC0F3
:101490008091EB0080618093EB0021E030E0A901B6
:1014A00002C0440F551F9A95E2F74093EA0010924C
:1014B000EA008091EB0088608093EB001092E900D5
:1014C0008091E800877F8093E800A8DD59CF9111D3
:1014D00057CFAE014F5F5F4F60E070E080E091E07A
:1014E0000E94EE00892B09F44BCF20915B073091CD
:1014F0005C073327E981FA81818990E0821793079D
:101500000CF43ECF8091E800877F8093E8008091C3
:101510005B078093560782DD80915607811132C0A8
:101520008091E30087FD2EC081E0809358070E94E0
:10153000930026CF903811F1923809F021CF809195
:101540005D078F70873008F01BCF8093E900809192
:10155000EB0085FB882780F91092E9009091E80064
:10156000977F9093E8008093F1001092F1008091B2
:10157000E8008E778093E80051DD02CF80E0EECF67
:1015800083E041CF84E0D1CF8091EB0080628093F3
:10159000EB0094CF0895CF9380915807882391F062
:1015A000C091E900CF708091EC0080FD0DC080E01B
:1015B000C82B1092E9008091E80083FD0DC0CF7028
:1015C000C093E900CF91089580E8C82B1092E900FC
:1015D0008091E80083FFF3CF98DEF1CFFB01DC01BF
:1015E00004C08D910190801921F441505040C8F7FA
:1015F000881B990B0895FB01DC0102C001900D923C
:0C16000041505040D8F70895F894FFCFF7
:10160C0001726557415344C1010200000000000003
:10161C0000000000000000000000000000000000BE
:10162C0000000000000000000000000000000000AE
:10163C00000000000000000000000000000000009E
:02164C00000894
:00000001FF
